:020000040800F2
:1000000000060020E1010008E3010008E301000808
:10001000E3010008E3010008E3010008E301000830
:10002000E3010008E3010008E30100083D30000897
:10003000E3010008E3010008E3010008E301000810
:10004000E3010008E3010008E3010008E301000800
:10005000E3010008E3010008E3010008E3010008F0
:10006000E3010008E3010008E3010008E3010008E0
:10007000E3010008E3010008E3010008E3010008D0
:10008000E3010008E3010008E3010008E3010008C0
:10009000E3010008E3010008E3010008E3010008B0
:1000A000E3010008E3010008E3010008E3010008A0
:1000B000E5320008E3010008E3010008E30100085D
:1000C000E3010008E3010008E3010008E301000880
:1000D000E3010008E3010008E3010008E301000870
:1000E000E3010008E3010008E3010008E301000860
:1000F000E3010008E3010008E3010008E301000850
:10010000E3010008E3010008E3010008E30100083F
:10011000E3010008E3010008E3010008E30100082F
:10012000E3010008E3010008E3010008E30100081F
:10013000E3010008E3010008E3010008E30100080F
:10014000E3010008E3010008E3010008C1270008FB
:10015000E3010008E3010008E3010008E3010008EF
:10016000E3010008E3010008E3010008E3010008DF
:10017000E3010008E3010008E3010008E3010008CF
:10018000E3010008E3010008E3010008E3010008BF
:10019000E3010008E3010008E3010008E3010008AF
:1001A000E3010008E3010008E3010008E30100089F
:1001B000E3010008E3010008E3010008E30100088F
:1001C000E3010008E3010008E3010008E30100087F
:1001D000E3010008E3010008E3010008E30100086F
:1001E00002E000F000F8FEE772B6374880F30888B6
:1001F000364880F3098836483649086040F20000E6
:10020000CCF200004EF63471CEF200010860BFF36C
:100210004F8FBFF36F8F40F20000C0F2F0004EF638
:100220008851CEF200010860BFF34F8FBFF36F8F8C
:100230004FF00000E1EE100A4EF63C71CEF20001E4
:100240000860022080F31488BFF36F8F01F03EFF37
:1002500002F092FE4FF055301F491B4A91423CBFBD
:1002600041F8040BFAE71D49184A91423CBF41F896
:10027000040BFAE71A491B4A1B4B9A423EBF51F83E
:10028000040B42F8040BF8E700201849184A914281
:100290003CBF41F8040BFAE701F01CFF02F0C0FE7E
:1002A000144C154DAC4203DA54F8041B8847F9E7A7
:1002B00000F042F8114C124DAC4203DA54F8041B22
:1002C0008847F9E701F004BF000600200022002063
:1002D0000000000808ED00E00000002000060020FB
:1002E000603600080022002040220020402200202A
:1002F000E02D0020E0010008E0010008E001000816
:10030000E00100082DE9F04F2DED108AC1F80CD066
:10031000C3689D46BDEC108ABDE8F08F002383F3CF
:1003200011882846A047002001F07CFAFEE701F082
:1003300005FA00DFFEE7000038B500F0A5FB01F08C
:1003400091FE054601F0B4FE0446C8B90E4B9D422D
:1003500018D001339D4218BF044641F2883504BFCE
:1003600001240025002001F087FE0CB100F072F896
:1003700000F0EAFC284600F0BDF800F06BF8F9E761
:100380000025EFE70546EDE7010007B008B500F0EE
:100390004DFBA0F120035842584108BD07B5042188
:1003A00001900DEB010000F05FFB03B05DF804FB72
:1003B00038B5302383F31188174803680BB101F077
:1003C000FDFA164A144800234FF47A7101F0ECFA52
:1003D000002383F31188124C236813B12368013B77
:1003E0002360636813B16368013B63600D4D2B7834
:1003F00033B963687BB9022000F010FC32236360DC
:100400002B78032B07D163682BB9022000F006FC80
:100410004FF47A73636038BD40220020B1030008B6
:100420006023002058220020084B187003280CD8A5
:10043000DFE800F008050208022000F0E5BB02201A
:1004400000F0D8BB024B00225A60704758220020AF
:1004500060230020234B244A10B51C461968013143
:100460003FD004339342F9D16268A24239D31F4B83
:100470009B6803F1006303F540439A4231D20020A8
:1004800000F01CFB0220FFF7CFFF194B1A6C002273
:100490001A64196E1A66196E596C5A64596E5A6646
:1004A0005A6E5A6942F080025A615A6922F08002FB
:1004B0005A615A691A6942F000521A611A6922F0A7
:1004C00000521A611B6972B64FF0E0233021C3F865
:1004D000084DD4E9003281F311889D4683F30888E2
:1004E000104710BD00C0000820C0000800220020F6
:1004F000003802402DE9F04F93B0DFF804930290EA
:100500002022FF210AA8D9F8085000F0C7FBB34AFF
:100510001378A3B9B248012103601170302383F32B
:10052000118803680BB101F049FAAE4AAC480023C8
:100530004FF47A7101F038FA002383F31188029B9B
:1005400013B1A94B029A1A60A84A029C1378032B94
:100550001EBF00231370A44A4FF0000B18BF536056
:10056000CDF804B05E46DA46012000F04DFB24B120
:100570009D4B1B68002B00F0F981002000F056FA1B
:10058000071EF4DB012000F035FBA7F1210016283F
:10059000EAD801A353F820F0F50500081106000879
:1005A0009F0600086905000869050008690500083C
:1005B00023070008E3080008050800086108000890
:1005C00087080008AD08000869050008BF08000892
:1005D000690500082B0900087D0600086905000868
:1005E00073090008010600087D0600086905000877
:1005F000610800080220FFF7C9FE002840F0E381EF
:10060000029B7B48BBF1000F08BF1C46022140E063
:100610004FF47A7000F00AFA071EF1DB0220FFF7B0
:10062000B5FE0028ECD0013F052F00F2CE81DFE8B7
:1006300007F003070A0D10330520FFF7AFFE14E0A3
:10064000D9F80000F9E7D9F80400F6E7D9F808006E
:10065000F3E74FF01C08404600F032FA08F10408B6
:10066000FFF79CFEB8F12C0FF5D1019B012000FA99
:1006700007F71F43FBB201934FF0000A00F05AFB4B
:100680002EB1019B03F00B030B2B08BF002459482C
:10069000022100F0E9F967E7D9F80C00CDE7002E58
:1006A000AED0019B03F00B030B2BA9D10220FFF767
:1006B0006DFE07460028A3D0012000F0FFF90220BC
:1006C000FFF7B2FE00261FFA86F8404600F006FA51
:1006D000044670B10021404600F010FA01360028AF
:1006E000F1D1BB4604464448022100F0BDF93E4624
:1006F0003AE70120FFF798FE2546D9F80830AB42CB
:1007000007D9284600F0DCF9013040F0618104355A
:10071000F3E7364B00251D70334BBB465D603E460C
:10072000ACE7002E3FF46CAF019B03F00B030B2BE7
:100730007FF466AF0220FFF777FE322000F076F9F3
:10074000B0F10008FFF65CAF18F003077FF458AF74
:10075000D9F8082008EB050393423FF651AFB8F5EE
:10076000807F3FF74DAF254B0393B8450BDD4FF42A
:100770007A7000F05BF90028FFF642AF039B013767
:1007800003F8010BF0E7C820FFF700FE074600283A
:100790003FF436AF1F2D11D8C5F1200242450AABF8
:1007A00025F0030028BF424614490392184400F084
:1007B0004FFA039A1148FF2100F070FA4FEAA8039C
:1007C0000E490393C8F38702284600F06FFA0646E5
:1007D000002888D0039B05EB83054FE75C230020AE
:1007E00040220020B103000860230020582200208E
:1007F0003833000830330008343300085C2200200E
:10080000002200200220FFF7C1FD00283FF4F8AECF
:1008100000F0A0F900283FF4F3AE0027B846D9F85D
:100820000830BB4218D91F2F11D80A9B01330ED0B4
:1008300027F0030312AA134453F8203C05934046C3
:10084000042205A900F0AAFA04378046E7E73846F3
:1008500000F036F90590F2E74046FFF79FFD0DE7FF
:100860000023642105A8059300F0F4F800287FF424
:10087000C7AE0220FFF78AFD00283FF4C1AE0598FD
:1008800000F050F9E9E70023642105A8059300F082
:10089000E1F800287FF4B4AE0220FFF777FD0028CE
:1008A0003FF4AEAE059800F04DF9D6E70220FFF711
:1008B0006DFD00283FF4A4AE00F05CF9CDE7022006
:1008C000FFF764FD00283FF49BAE05A9142000F05B
:1008D00057F90390FFF762FD039905A800F0C4F8EB
:1008E000CCE6322000F0A2F8071EFFF689AEBB0767
:1008F0007FF486AED9F8082007EB0A0393423FF64F
:100900007FAE0220FFF742FD00283FF479AE27F0CA
:1009100003075744BA453FF4B1AE504600F0D0F853
:10092000FFF73CFD0AF1040AF4E74FF47A70FFF791
:100930002DFD00283FF464AE00F00CF9002849D0EA
:100940000A9B01330BD008220AA9002000F0AEF95F
:1009500000283FD02022FF210AA800F09FF91E485E
:10096000022100F081F81D4800F062FF13B0BDE8DD
:10097000F08F002E3FF444AE019B03F00B030B2BD2
:100980007FF43EAE0023642105A8059300F062F8D1
:10099000074600287FF434AE0220FFF7F7FC8046BC
:1009A00000283FF42DAE02210B4800F05DF841F223
:1009B000883000F03DFF059800F0EEF9464600F063
:1009C000B9F93C46D0E5064658E64FF0000A17E66E
:1009D000BB4688E6374686E630330008A08601002D
:1009E00070B50F4B1B780133DBB2012B0C4611D8CD
:1009F0000C4D29684FF47A730E6AA2FB033201464C
:100A000022462846B047844204D1074B00221A7080
:100A1000012070BD4FF4FA7000F00AFF0020F8E7E3
:100A200010220020082600209423002007B5002370
:100A3000024601210DF107008DF80730FFF7D0FFC6
:100A400020B19DF8070003B05DF804FB4FF0FF30C4
:100A5000F9E700000A4608B50421FFF7C1FF80F05E
:100A60000100C0B2404208BD30B4054C2368DD69C6
:100A7000044B0A46AC460146204630BC604700BFE6
:100A800008260020A086010070B501F0F1F9094E9A
:100A9000094D3080002428683388834208D901F04A
:100AA000E1F92B6804440133B4F5404F2B60F2D3D5
:100AB00070BD00BF962300206823002001F086BA95
:100AC00000F1006000F540400068704700F10060F0
:100AD000920000F5404001F011BA0000054B1A6881
:100AE000054B1B889B1A834202D9104401F0BAB906
:100AF00000207047682300209623002038B5084D59
:100B0000044629B128682044BDE8384001F0CAB93C
:100B10002868204401F0AEF90028F3D038BD00BFAA
:100B20006823002010F003030AD1B0F5047F05D23A
:100B300000F10050A0F51040D0F80038184670477A
:100B40000023FBE700F10050A0F51040D0F8100A98
:100B500070470000064991F8243033B10023086A39
:100B600081F824300822FFF7B1BF0120704700BF91
:100B70006C230020014B1868704700BF002004E080
:100B800070B5194B1D68194B0138C5F30B040844A7
:100B90002D0C04221E88A6420BD15C680A46013C3B
:100BA000824213460FD214F9016F4EB102F8016B65
:100BB000F6E7013A03F10803ECD181420B4602D279
:100BC0002C2203F8012B0A4A05241688AE4204D1D0
:100BD000984284BF967803F8016B013C02F104024D
:100BE000F3D1581A70BD00BF002004E07C33000828
:100BF00068330008022802BF024B4FF080729A61EE
:100C0000704700BF00000240022802BF024B4FF4B1
:100C100080729A61704700BF00000240022801BF45
:100C2000024A536983F480735361704700000240A5
:100C300070B504464FF47A764CB1412C254628BF56
:100C4000412506FB05F000F0F3FD641BF4E770BDE1
:100C500010B50023934203D0CC5CC4540133F9E7B0
:100C600010BD000010B5013810F9013F3BB191F9FA
:100C700000409C4203D11AB10131013AF4E71AB1A4
:100C800091F90020981A10BD1046FCE70346024671
:100C9000D01A12F9011B0029FAD170470244034609
:100CA000934202D003F8011BFAE770472DE9F8439D
:100CB0001F4D144695F824200746884652BBDFF89E
:100CC00070909CB395F824302BB92022FF21484620
:100CD0002F62FFF7E3FF95F82400C0F10802A2425B
:100CE00028BF2246D6B24146920005EB8000FFF7AE
:100CF000AFFF95F82430A41B1E44F6B2082E17440B
:100D00009044E4B285F82460DBD1FFF723FF00288C
:100D1000D7D108E02B6A03EB82038342CFD0FFF7E1
:100D200019FF0028CBD10020BDE8F8830120FBE7A4
:100D30006C230020024B1A78024B1A70704700BFD8
:100D4000942300201022002010B5104C104800F011
:100D5000B9F821460E4800F0E1F82468626DD2F837
:100D6000043843F00203C2F804384FF47A70FFF7F6
:100D70005FFF0849204600F0F9F9626DD2F80438A7
:100D800023F00203C2F8043810BD00BF4834000845
:100D900008260020503400087047000030B5094D87
:100DA0000A4491420DD011F8013B5840082340F30A
:100DB0000004013B2C4013F0FF0384EA5000F6D1FD
:100DC000EFE730BD2083B8ED02684368114301604E
:100DD00003B118477047000013B5446BD4F894343E
:100DE0001A681178042915D1217C022912D11979A8
:100DF000128901238B4013420CD101A904F14C004C
:100E000001F076FFD4F89444019B217902462068D2
:100E100000F0F6F902B010BD143001F0F9BE000088
:100E20004FF0FF33143001F0F3BE00004C3001F0FE
:100E3000CBBF00004FF0FF334C3001F0C5BF0000C6
:100E4000143001F0C7BE00004FF0FF31143001F044
:100E5000C1BE00004C3001F097BF00004FF0FF32E0
:100E60004C3001F091BF000010B5D0F894341A68EE
:100E700011780429044617D1017C022914D159792B
:100E8000528901238B4013420ED1143001F05CFED5
:100E9000024648B1D4F894444FF4807361792068D5
:100EA000BDE8104000F09AB910BD0000406BFFF79C
:100EB000DBBF000000290CBF6FF01300002070475B
:100EC000704700007FB5124B036000234360C0E908
:100ED0000233012502260F4B05740446029001934C
:100EE00000F18402294600964FF48073143001F01B
:100EF00007FE094B0294CDE9006304F523724FF419
:100F00008073294604F14C0001F0CEFE04B070BDA0
:100F10009C330008AD0E0008D90D0008302383F380
:100F200011880B680A7903EB820290614A790932D1
:100F300043F822008A7912B103EB820398610223FD
:100F4000C0F894140374002080F3118870470000E7
:100F500038B5037F044613B190F85430ABB9201D67
:100F600001250221FFF730FF04F1140025776FF00F
:100F7000010100F085FC84F8545004F14C006FF03E
:100F80000101BDE8384000F07BBC38BD10B501213F
:100F900004460430FFF718FF0023237784F8543009
:100FA00010BD000038B504460025143001F0C0FD26
:100FB00004F14C00257701F08FFE201D84F8545079
:100FC0000121FFF701FF2046BDE83840FFF74CBF85
:100FD00090F8443003F06003202B07D190F84520AF
:100FE000212A4FF0000303D81F2A06D8002070479B
:100FF000222AFBD1C0E90E3303E0034A82630722B1
:10100000C2630364012070471122002037B5D0F875
:1010100094341A681178042904461AD1017C0229F3
:1010200017D11979128901238B40134211D100F194
:101030004C05284601F010FF58B101A9284601F0DF
:1010400057FED4F89444019B21790246206800F0B1
:10105000D7F803B030BD00002DE9F34104460D463A
:1010600019B300EB81039E69FEB1302383F311882D
:1010700000EB810706F14C08FB685B691B6833B124
:10108000404601F043FE0821301DFFF79DFE01A9F7
:10109000404601F02DFE024650B1019B29462046F4
:1010A00000F0AEF8002383F3118802B0BDE8F081B0
:1010B000FB685A69126832B11B8A013B134002D1A6
:1010C00004F14402EAE71021301DFFF77DFEE9E755
:1010D00038B5F9B1093150F82140DCB1302383F340
:1010E0001188D4F894241368527903EB8203DB68E7
:1010F0009B695D6845B104216018FFF765FE2946CC
:1011000004F1140001F02AFD2046FFF7ADFE002394
:1011100083F3118838BD00007047000010B500212E
:10112000044601F0B9FC0021204601F0ABFC6368E5
:101130001B6813B1062120469847A36823F00113CA
:10114000A3600023E363062384F8343010BD00005D
:1011500001F034B8012303700023C0E90133C361F7
:1011600083620362C36243620363704738B5044617
:10117000302383F311880025C0E90355C0E90555E4
:10118000416001F02BF80223237085F31188284673
:1011900038BD000070B500EB810305465069DA6088
:1011A0000E46144618B110220021FFF777FDA06902
:1011B00018B110220021FFF771FD31462846BDE825
:1011C000704001F0D7B80000826802F0011282601E
:1011D0000022C0E90422826101F058B9F0B400EBAA
:1011E00081044789E4680125A4698D403D43458118
:1011F00023600023A2606360F0BC01F073B90000BB
:10120000F0B400EB81040789E468012564698D402E
:101210003D43058123600023A2606360F0BC01F0C0
:10122000EDB9000070B50223002504460370C0E943
:101230000255C0E90455C564C563856180F8345022
:1012400001F032F863681B6823B129462046BDE8E7
:101250007040184770BD00000378052B10B5044698
:101260000AD080F850300523037043681B680BB127
:10127000042198470023A36010BD000001780529D0
:1012800006D190F85020436802701B6803B11847DC
:101290007047000070B590F8343004463BB1836865
:1012A00023F0011383600023C36380F8343004F11A
:1012B00044020021204601F00BF963689B684BB99A
:1012C00094F8443013F0600528D02046BDE8704003
:1012D000FFF724BF204698470028F1D0B4F84A30E1
:1012E000E26B9A4288BFE36394F94430E56B002BCC
:1012F0004FF0300380F20281002D00F0F1800922CE
:1013000084F8342083F311880021D4E90E23204689
:10131000FFF776FF002383F3118870BD94F8452012
:1013200003F07F0343EA022340F20232934200F0CB
:10133000C48021D8B3F5807F47D00DD8012B3ED093
:10134000022B00F09280002BBFD104F14C02A2636B
:101350000222E2632364C1E7B3F5817F00F09A8043
:10136000B3F5407FB1D194F84630012BADD1B4F83C
:101370004C3043F0020331E0B3F5006F4CD017D886
:10138000B3F5A06F30D0A3F5C063012B9DD863687F
:1013900094F846205E6894F84710B4F84830204628
:1013A000B047002891D04368A3630368E36319E062
:1013B000B3F5106F35D040F60242934285D15C4BB5
:1013C000A3630223E3630023C4E794F84630012BB0
:1013D0007FF47BAFB4F84C3023F00203C4E90E5520
:1013E000A4F84C30256479E7B4F84430B3F5A06F25
:1013F0000ED194F8463084F84E30204600F0AEFF0F
:1014000063681B6813B101212046984703232370AA
:101410000023C4E90E339DE704F14F03A3630123C6
:10142000C4E72378042B10D1302383F3118820469E
:10143000FFF7CAFE85F311880321636884F84F50D3
:1014400021701B680BB12046984794F84630002B5A
:10145000DED084F84F300423237063681B68002BB0
:10146000D6D0022120469847D2E794F848301D068E
:1014700003F00F0120460AD501F01CF8012804D022
:1014800002287FF422AF2B4B9AE72B4B98E701F011
:1014900003F8F3E794F84630002B7FF416AF94F886
:1014A000483013F00F01B3D01A06204602D501F0E0
:1014B00007FBADE701F0FAFAAAE794F84630002BF3
:1014C0007FF403AF94F8483013F00F01A0D01B064F
:1014D000204602D501F0E0FA9AE701F0D3FA97E747
:1014E000142284F8342083F311882B462A46294697
:1014F0002046FFF773FE85F311880EE75DB11522D4
:1015000084F8342083F311880021D4E90E23204687
:10151000FFF764FEFEE60B2284F8342083F3118883
:101520002B462A4629462046FFF76AFEE3E700BF1E
:10153000CC330008C4330008C833000838B590F82D
:1015400034300B2B044609D80B2B37D8DFE803F0D7
:101550000836363636360836360D2737152B2DD158
:101560002046BDE83840FFF7D9BDC56BB0F84A301A
:101570009D4214D2C3681B8AB5FBF3F203FB1255DC
:101580006DB9302383F311882B462A462946FFF78D
:1015900037FE85F311880A2384F834300EE01423D3
:1015A00084F83430302383F3118800231A46194617
:1015B0002046FFF713FE002383F3118838BD036C28
:1015C00003B19847A36823F00113A3600023E363EA
:1015D000E2E7000010B590F83430142B04461ED01A
:1015E0000CD8062B05D001D81BB110BD0A3B012B2E
:1015F000FBD82046BDE81040FFF790BD152BF4D175
:101600000B2380F83430302383F3118800231A46EB
:101610001946FFF7F5FD002383F31188E5E7C3685A
:101620009B695B68002BE0D1036C03B19847A3680A
:1016300023F00113A3600023E36384F83430D4E77C
:1016400000230375826803691B6899689142FBD285
:101650005A68036042601060586070470023037549
:10166000826803691B6899689142FBD85A680360D5
:10167000426010605860704708B50846302383F315
:1016800011880B7D032B05D0042B0DD02BB983F3D0
:10169000118808BD8B6900221A604FF0FF33836107
:1016A000FFF7CEFF0023F2E7D1E9003213605A6062
:1016B000F3E70000FFF7C4BF38B50A4BDD681C68CC
:1016C000287522681A605360DC60A3680122934287
:1016D000227501D100F0F6FC29462046BDE83840CD
:1016E000FEF710BE9823002030B50C4BDD684B1C74
:1016F00087B004460FD02B46094A684600F054F9DB
:101700002046FFF7D9FF009B13B1684600F056F959
:10171000A86907B030BDFFF7CFFFF9E79823002095
:1017200079160008044B1A68DB6890689B68984239
:1017300094BF0020012070479823002038B50B4B40
:101740001C68DD6822681A60536001222275DC6023
:10175000AB68934201D100F0B7FC2846FFF77EFF4B
:1017600001462046BDE83840FEF7CCBD9823002056
:1017700038B5074C074908480123002523706560E8
:1017800001F0A2FB0223237085F3118838BD00BF4E
:1017900000260020D43300089823002000F044B92C
:1017A000034A516853685B1A9842FBD8704700BFE0
:1017B000001000E08B60022308618B8208467047AE
:1017C0008368A3F1840243F8142C026943F8442C83
:1017D000426943F8402C094A43F8242CC26843F874
:1017E000182C022203F80C2C002203F80B2C044ABC
:1017F00043F8102CA3F12000704700BF1D03000820
:101800009823002008B5FFF7DBFFBDE80840FFF78D
:1018100051BF0000024BDB6898610F20FFF74CBFFF
:1018200098230020302383F31188FFF7F3BF0000D3
:1018300008B50146302383F311880820FFF754FFD1
:10184000002383F3118808BD064BDB6839B1426879
:1018500018605A60136043600420FFF745BF4FF0E3
:10186000FF307047982300200368984206D01A681A
:101870000260506099611846FFF71CBF7047000076
:1018800038B504460D462068844200D138BD03684F
:1018900023605C608561FFF70DFFF4E710B5036816
:1018A0009C68A2420CD85C688A600B604C60216026
:1018B000596099688A1A9A604FF0FF33836010BDAF
:1018C0001B68121BECE700000A2938BF0A2170B51B
:1018D00004460D460A26601901F0F0FA01F0DCFA20
:1018E000041BA54203D8751C2E460446F3E70A2EB6
:1018F00004D9BDE87040012001F026BB70BD000096
:10190000F8B5144B0D46D96103F1100141600A2A64
:101910001969826038BF0A22016048601861A818FE
:10192000144601F0BDFA0A2701F0B6FA431BA342A0
:10193000064606D37C1C281901F0C0FA2746354616
:10194000F2E70A2F04D9BDE8F840012001F0FCBA03
:10195000F8BD00BF98230020F8B506460D4601F0FB
:101960009BFA0F4A134653F8107F9F4206D12A462E
:1019700001463046BDE8F840FFF7C2BFD169BB68F9
:10198000441A2C1928BF2C46A34202D92946FFF736
:101990009BFF224631460348BDE8F840FFF77EBF73
:1019A00098230020A823002010B4C0E903230023BB
:1019B0005DF8044B4361FFF7CFBF000010B5194C31
:1019C000236998420DD0D0E90032816813605A60D3
:1019D0009A680A449A60002303604FF0FF33A361C2
:1019E00010BD2346026843F8102F536000220260A6
:1019F00022699A4203D1BDE8104001F059BA9368B8
:101A000081680B44936001F047FA2269E1699268AA
:101A1000441AA242E4D91144BDE81040091AFFF764
:101A200053BF00BF982300202DE9F047DFF8BC80AA
:101A300008F110072C4ED8F8105001F02DFAD8F804
:101A40001C40AA68031B9A423ED81444D5E90032D0
:101A50004FF00009C8F81C4013605A60C5F80090A8
:101A6000D8F81030B34201D101F022FA89F311887D
:101A7000D5E9033128469847302383F311886B69F1
:101A8000002BD8D001F008FA6A69A0EB04094A4596
:101A900082460DD2022001F057FA0022D8F8103009
:101AA000B34208D151462846BDE8F047FFF728BFAA
:101AB000121A2244F2E712EB090938BF4A462946B6
:101AC0003846FFF7EBFEB5E7D8F81030B34208D040
:101AD0001444211AC8F81C00A960BDE8F047FFF7BC
:101AE000F3BEBDE8F08700BFA823002098230020A4
:101AF00000207047FEE70000704700004FF0FF3005
:101B00007047000002290CD0032904D0012907489E
:101B100018BF00207047032A05D8054800EBC20013
:101B20007047044870470020704700BFAC3400087D
:101B3000202200206034000870B59AB0054608469F
:101B400001A9144600F0C2F801A8FFF79FF8431C52
:101B50005B00C5E900340022237003236370C6B222
:101B600001AB02341046D1B28E4204F1020401D816
:101B70001AB070BD13F8011B04F8021C04F8010C24
:101B80000132F0E708B5302383F311880348FFF7EB
:101B90003DFA002383F3118808BD00BF082600200A
:101BA00090F8443003F01F02012A07D190F8452035
:101BB0000B2A03D10023C0E90E3315E003F06003C4
:101BC000202B08D1B0F848302BB990F84520212AB5
:101BD00003D81F2A04D8FFF7FBB9222AEBD0FAE773
:101BE000034A82630722C26303640120704700BF77
:101BF0001822002007B5052917D8DFE801F01916CB
:101C000003191920302383F31188104A0190012110
:101C1000FFF7C0FA01980E4A0221FFF7BBFA0D4800
:101C2000FFF7C0F9002383F3118803B05DF804FBCC
:101C3000302383F311880748FFF78AF9F2E730234E
:101C400083F311880348FFF7A1F9EBE7003400089C
:101C5000243400080826002038B50C4D0C4C0D49E2
:101C60002A4604F10800FFF767FF05F1CA0204F1F4
:101C700010000949FFF760FF05F5CA7204F118006A
:101C80000649BDE83840FFF757BF00BFD02A002003
:101C900020220020E0330008EA330008F533000872
:101CA00070B5044608460D46FEF7F0FFC6B2204662
:101CB000013403780BB9184670BD32462946FEF749
:101CC000D1FF0028F3D10120F6E700002DE9F0470D
:101CD00005460C46FEF7DAFF2B49C6B22846FFF749
:101CE000DFFF08B10B36F6B228492846FFF7D8FFC8
:101CF00008B11036F6B2632E0BD8DFF88C80DFF80F
:101D00008C90234FDFF894A02E7846B92670BDE85A
:101D1000F08729462046BDE8F04701F001BB252E9B
:101D20002ED1072241462846FEF79CFF70B9194B79
:101D3000224603F1100153F8040B42F8040B8B42C6
:101D4000F9D11B88138007351234DDE70822494694
:101D50002846FEF787FF98B90F4BA21C197809098E
:101D60000232C95D02F8041C13F8011B01F00F01D7
:101D70005345C95D02F8031CF0D118340835C3E798
:101D800004F8016B0135BFE7CC340008F5330008D7
:101D9000E7340008D4340008107AFF1F1C7AFF1FB4
:101DA000BFF34F8F024AD368DB03FCD4704700BFF8
:101DB000003C024008B5094B1B7873B9FFF7F0FFF0
:101DC000074B1A69002ABFBF064A5A6002F18832DF
:101DD0005A601A6822F480621A6008BD2E2D002015
:101DE000003C02402301674508B50B4B1B7893B9B3
:101DF000FFF7D6FF094B1A6942F000421A611A68D0
:101E000042F480521A601A6822F480521A601A68EA
:101E100042F480621A6008BD2E2D0020003C024072
:101E20000B28F0B516D80C4C0C4923787BB90C4D17
:101E30000E460C234FF0006255F8047B46F8042B45
:101E4000013B13F0FF033A44F6D10123237051F80C
:101E50002000F0BD0020FCE7602D0020302D002088
:101E6000F8340008014B53F820007047F83400089C
:101E70000C2070470B2810B5044601D9002010BD76
:101E8000FFF7CEFF064B53F824301844C21A0BB9A3
:101E90000120F4E712680132F0D1043BF6E700BFFD
:101EA000F83400080B2810B5044621D8FFF778FF56
:101EB000FFF780FF0F4AF323D360C300DBB243F484
:101EC000007343F002031361136943F48033136119
:101ED000FFF766FFFFF7A4FF074B53F8241000F04D
:101EE000D9F8FFF781FF2046BDE81040FFF7C2BFD9
:101EF000002010BD003C0240F8340008F8B512F094
:101F00000103144642D18218B2F1016F57D82D4B0C
:101F10001B6813F0010352D02B4DFFF74BFFF32347
:101F2000EB60FFF73DFF40F20127032C15D824F0AA
:101F300001046618244C401A40F20117B14223698B
:101F400000EB010524D123F001032361FFF74CFFCF
:101F50000120F8BD043C0430E7E78307E7D12B6993
:101F600023F440732B612B693B432B6151F8046BC5
:101F70000660BFF34F8FFFF713FF03689E42E9D05F
:101F80002B6923F001032B61FFF72EFF0020E0E710
:101F900023F44073236123693B4323610B882B8027
:101FA000BFF34F8FFFF7FCFE2D8831F8023BADB237
:101FB000AB42C3D0236923F001032361E4E7184651
:101FC000C7E700BF00380240003C0240084908B59E
:101FD0000B7828B11BB9FFF7EDFE01230B7008BD8C
:101FE000002BFCD0BDE808400870FFF7FDBE00BF25
:101FF0002E2D002010B50244064BD2B2904200D1E3
:1020000010BD441C00B253F8200041F8040BE0B2AC
:10201000F4E700BF502800400F4B30B51C6F24047C
:1020200007D41C6F44F400741C671C6F44F4004414
:102030001C670A4C236843F4807323600244084BF6
:10204000D2B2904200D130BD441C00B251F8045BC2
:1020500043F82050E0B2F4E700380240007000403E
:102060005028004007B5012201A90020FFF7C2FF58
:10207000019803B05DF804FB13B50446FFF7F2FFC7
:10208000A04205D0012201A900200194FFF7C4FF5E
:1020900002B010BD70470000034B1A681AB9034A1A
:1020A000D2F874281A607047642D00200030024076
:1020B00008B5FFF7F1FF024B1868C0F3407008BD88
:1020C000642D00207047000070470000704700003A
:1020D000FEE700000A4B0B480B4A90420BD30B4B18
:1020E000DA1C121AC11E22F003028B4238BF0022F2
:1020F0000021FEF7D3BD53F8041B40F8041BECE7A6
:10210000A0360008E02D0020E02D0020E02D00206A
:1021100070B5D0E915439E6800224FF0FF3504EBFF
:1021200042135101D3F800090028BEBFD3F80009BB
:1021300040F08040C3F80009D3F8000B0028BEBF70
:10214000D3F8000B40F08040C3F8000B0132631855
:102150009642C3F80859C3F8085BE0D24FF0011368
:10216000C4F81C3870BD00000E4AF0B5D2E9156302
:102170009F6800230C321946012552F8040B58B110
:10218000846924B101F1100405FA04F42343406981
:1021900010B105FA01F003430131B942EDD9C6F897
:1021A0001C38F0BD682D0020890141F0200101613B
:1021B00003699B06FCD41220FFF7F2BA10B5054C58
:1021C0002046FEF7C7FF4FF0A0436365024BA365AF
:1021D00010BD00BF682D00204C35000870B5037895
:1021E000012B054650D12A4B446D98421BD1294BF7
:1021F0005A6B42F080025A635A6D42F080025A656F
:102200005A6D5A6942F080025A615A6922F080027E
:102210005A610E2143205B6900F05CFC1E4BE360B9
:102220001E4BC4F800380023C4F8003EC0232360CE
:102230006E6D4FF40413A3633369002BFCDA0123A2
:1022400033610C20FFF7ACFA3369DB07FCD41220B2
:10225000FFF7A6FA3369002BFCDA0026A6602846B1
:10226000FFF756FF6B68C4F81068DB68C4F81468A1
:10227000C4F81C684BB90A4BA3614FF0FF3363618C
:10228000A36843F00103A36070BD064BF4E700BFF1
:10229000682D002000380240401400400300200256
:1022A000003C30C0083C30C0F8B5446D0546002104
:1022B0002046FFF779FFA96D00234FF001128F68C8
:1022C000C4F834384FF00066C4F81C284FF0FF30D3
:1022D00004EB431201339F42C2F80069C2F8006B5D
:1022E000C2F80809C2F8080BF2D20B686A6DEB65F8
:1022F000636210231361166916F01006FBD11220D9
:10230000FFF74EFAD4F8003823F4FE63C4F800381F
:10231000A36943F4402343F01003A3610123C4F8ED
:1023200010380923C4F814380A4BEB604FF0C0434F
:10233000C4F8103B084BC4F8003BC4F81069C4F85B
:102340000039EB6D03F1100243F48013EA65A362D8
:10235000F8BD00BF2835000840800010426D90F89D
:102360004E10D2F8003823F4FE6343EA0113C2F89A
:10237000003870472DE9F84300EB8103456DDA68BA
:10238000166806F00306731E022B05EB41130C467C
:1023900080460FFA81F94FEA41104FF00001C3F86F
:1023A000101B4FF0010104F1100398BFB60401FAAD
:1023B00003F391698EBF334E06F1805606F5004651
:1023C00000293AD0578A04F15801490137436F5028
:1023D000D5F81C180B43C5F81C382B180021C3F87E
:1023E000101953690127611EA7409BB3138A928B72
:1023F0009B08012A88BF5343D8F85C20981842EA0A
:10240000034301F1400205EB8202C8F85C0021465B
:1024100053602846FFF7C8FE08EB8900C3681B8A93
:1024200043EA8453483464011E432E51D5F81C38C6
:102430001F43C5F81C78BDE8F88305EB4917D7F8AA
:10244000001B21F40041C7F8001BD5F81C1821EA35
:102450000303C0E704F13F0305EB83030A4A5A6014
:1024600028462146FFF7A0FE05EB4910D0F80039B9
:1024700023F40043C0F80039D5F81C3823EA0707D5
:10248000D7E700BF0080001000040002826D1268D0
:10249000C265FFF73DBE00005831436D49015B58EE
:1024A00013F4004004D013F4001F0CBF02200120DD
:1024B000704700004831436D49015B5813F40040F8
:1024C00004D013F4001F0CBF02200120704700004D
:1024D00000EB8101CB68196A0B6813604B6853608D
:1024E0007047000000EB810330B5DD68AA6913680E
:1024F000D36019B9402B84BF402313606B8A1468E2
:10250000426D1C44013CB4FBF3F46343033323F0FA
:10251000030302EB411043EAC44343F0C043C0F855
:10252000103B2B6803F00303012B09B20ED1D2F844
:10253000083802EB411013F4807FD0F8003B14BF41
:1025400043F0805343F00053C0F8003B02EB4112CC
:10255000D2F8003B43F00443C2F8003B30BD00001A
:102560002DE9F041244D6E6D06EB40130446D3F87F
:10257000087BC3F8087B38070AD5D6F81438190742
:1025800006D505EB84032146DB6828465B6898473F
:10259000FA071FD5D6F81438DB071BD505EB8403E3
:1025A000D968CCB98B69488A5A68B2FBF0F600FB4F
:1025B00016228AB91868DA6890420DD2121AC3E955
:1025C0000024302383F311880B482146FFF78AFF4C
:1025D00084F31188BDE8F081012303FA04F26B89CA
:1025E00023EA02036B81CB68002BF3D0214602481B
:1025F000BDE8F041184700BF682D002000EB8103C3
:1026000070B5DD68436D6C692668E6604A0156BBAB
:102610001A444FF40020C2F810092A6802F003029D
:10262000012A0AB20ED1D3F8080803EB421410F4C1
:10263000807FD4F8000914BF40F0805040F0005073
:10264000C4F8000903EB4212D2F8000940F004403C
:10265000C2F80009D3F83408012202FA01F101435B
:10266000C3F8341870BD19B9402E84BF40202060D3
:1026700020682E8A8419013CB4FBF6F440EAC44079
:1026800040F000501A44C6E72DE9F84F4B4D6E6DEF
:1026900006EB40130446D3F80889C3F8088918F0FC
:1026A000010F4FEA40171AD0D6F81038DB0716D5BD
:1026B00005EB8003D9684B691868DA68904233D219
:1026C000121A4FF000091A60C3F80490302383F304
:1026D000118821462846FFF791FF89F3118818F0E9
:1026E000800F1FD0D6F834380126A640334219D0C7
:1026F00005EB84036D6DD3F80CC0DCF814000134D5
:10270000E4B2D0F800E005EB04342F446FF0030886
:10271000D0F80490F14515D3D5F8343823EA0606ED
:10272000C5F83468BDE8F88F012303FA04F22B8959
:1027300023EA02032B818B68002BD0D02146284648
:102740009847CCE7BCF81020AEEB0903934228BFB2
:102750001346D7F8182992B2B3EB820FE2D88268F9
:10276000194602EB030B0329ABEB010A1CD84FEA15
:10277000930A23F0030B08FB0A31934479B1022931
:1027800018D0032918D19BF8021009049BF801B056
:1027900041EA0B2112F82AA04AEA010121601A44F9
:1027A0004B4482604360B3E7DAF800A0C4F800A0AD
:1027B0000439D8E70021E9E70021EBE7682D002084
:1027C0002DE9F74FAD4C656D4FF040084FF0010912
:1027D0006E69AB691E4016F480576E6107D0A7483A
:1027E000FEF720FD03B0BDE8F04F00F05BBC002E0B
:1027F00014DAD5F8003E98071EBFD5F8003E23F046
:102800000303C5F8003EFFF7AFFCD5F8043823F00A
:102810000103C5F804382046FEF730FD310505D523
:102820002046FFF775FC2046FEF716FDB2040CD5D6
:10283000D5F8083813F0060FEB6823F470530CBF7B
:1028400043F4105343F4A053EB60330719D5636886
:10285000DB681BB9AB6923F00803AB612378052B58
:1028600008D1D5F8003E23F00303C5F8003E20460A
:10287000FEF704FDFFF778FC6368DB680BB12046C8
:102880009847F0024FD4B10209D5D4F854B04FF0B4
:10289000000AA36D9B685FFA8AF18B427AD23203F9
:1028A000D5F818A800F19380730317D51AF0010F1B
:1028B00002D00020FFF7E8FE1AF0020F02D001203C
:1028C000FFF7E2FE1AF0040F02D00220FFF7DCFE51
:1028D0001AF0080F02D00320FFF7D6FEF00619D534
:1028E000D4F854C0DCF82020C2F30A1002F00F0321
:1028F00002F4F012B2F5802F00F09080B2F5402F74
:1029000008D104EB83030022DB681B6A0CF5805CB2
:10291000904276D15A4B1E423FF464AFB8F10108A1
:102920007FF456AF5EE7636D01934FF0000BA36D2C
:102930009B685FFA8BFA9A45A5D8019B03EB4A1373
:10294000D3F8001901F44021B1F5802F1FD1D3F83D
:10295000001900291BDAD3F8001941F09041C3F89F
:102960000019D3F800190029FBDB5146606DFFF711
:102970001BFC218909FA0AF321EA0303238104EBF2
:102980008A03DB689B6813B15146204698470BF1D8
:10299000010BCCE70BEB4112D2F8003B03F44023D0
:1029A000B3F5802F10D1D2F8003B002B0CDA6289EE
:1029B00009FA01F322EA0303638104EB8103DB6874
:1029C000DB680BB1204698470AF1010A61E71AF467
:1029D000803F02D00020FFF7C3FD1AF4003F02D071
:1029E0000120FFF7BDFD1AF4802F02D00220FFF76F
:1029F000B7FD1AF4002F3FF457AF0320FFF7B0FDE7
:102A000052E7910708BFDCF80070072A98BF03F867
:102A1000017B02F1010298BF3F0A79E703F1020A44
:102A200004EB8A024FF0000E52689169D1E900323E
:102A300089689A1A0CF5805C704511D104EB8A0301
:102A400082425B689B69D3E901178BBF3F18BF18AF
:102A50004018521887BF9F6058609F605A6059E7BE
:102A60001EF0030F08BFDCF80070724588BF01F844
:102A7000017B0EF1010E88BF3F0ADDE7682D0020C3
:102A800030000004436D03EB4111D1F8003B43F4E7
:102A90000013C1F8003B7047436D03EB4111D1F8BF
:102AA000003943F40013C1F800397047436D03EB5C
:102AB0004111D1F8003B23F40013C1F8003B7047EB
:102AC000436D03EB4111D1F8003923F40013C1F831
:102AD0000039704700F1604303F561430901C9B251
:102AE00083F80013012200F01F039A4043099B0062
:102AF00003F1604303F56143C3F880211A60704716
:102B000030B5039C0172043303FB0425C0E906536E
:102B1000049B03630021059BC160C0E90000C0E97C
:102B20000422C0E90842C0E90A11436330BD000035
:102B3000416A0022C0E90411C0E90A22C2606FF0B4
:102B40000101FEF79DBE0000D0E90432934201D19D
:102B5000C2680AB9181D70470020704703691960E0
:102B6000C2680132C260C269134482690361934240
:102B700024BF436A03610021FEF776BE38B50446E0
:102B80000D46E3683BB16269131D1268A3621344EA
:102B9000E362002007E0237A33B929462046FEF796
:102BA00053FE0028EDDA38BD6FF00100FBE70000AE
:102BB000C368C269013BC3604369134482694361CE
:102BC000934224BF436A436100238362036B03B1D2
:102BD0001847704770B53023044683F31188866A1E
:102BE0003EB9FFF7CBFF054618B186F3118828469A
:102BF00070BDA36AE26A13F8015BA362934202D339
:102C00002046FFF7D5FF002383F31188EFE700008C
:102C10002DE9F84F04460E46174698464FF0300906
:102C200089F311880025AA46D4F828B0BBF1000F1B
:102C300009D141462046FFF7A1FF20B18BF311884F
:102C40002846BDE8F88FD4E90A12A7EB050B521A03
:102C5000934528BF9346BBF1400F1BD9334601F182
:102C6000400251F8040B43F8040B9142F9D1A36AD6
:102C700040334036A3624035D4E90A239A4202D356
:102C80002046FFF795FF8AF31188BD42D8D289F319
:102C90001188C9E730465A46FDF7DAFFA36A5B445C
:102CA0005E44A3625D44E7E710B5029C0172043301
:102CB00003FB0421C0E906130023C0E90A33039B88
:102CC0000363049BC460C0E90000C0E90422C0E9BA
:102CD0000842436310BD0000026AC260426AC0E954
:102CE00004220022C0E90A226FF00101FEF7C8BDEC
:102CF000D0E904239A4201D1C26822B9184650F89B
:102D0000043B0B60704700231846FAE7C368C269AA
:102D10000133C3604369134482694361934224BF12
:102D2000436A43610021FEF79FBD000038B50446A9
:102D30000D46E3683BB123691A1DA262E2691344A0
:102D4000E362002007E0237A33B929462046FEF7E4
:102D50007BFD0028EDDA38BD6FF00100FBE70000D5
:102D600003691960C268013AC260C269134482698A
:102D70000361934224BF436A036100238362036BB0
:102D800003B118477047000070B530230D46044664
:102D9000114683F31188866A2EB9FFF7C7FF10B179
:102DA00086F3118870BDA36A1D70A36AE26A0133BD
:102DB0009342A36204D3E16920460439FFF7D0FFB0
:102DC000002080F31188EDE72DE9F84F04460D4609
:102DD000904699464FF0300A8AF311880026B34690
:102DE000A76A4FB949462046FFF7A0FF20B187F3F5
:102DF00011883046BDE8F88FD4E90A073A1AA8EBE3
:102E00000607974228BF1746402F1BD905F14003FC
:102E100055F8042B40F8042B9D42F9D1A36A4033A6
:102E2000A3624036D4E90A239A4204D3E1692046DA
:102E30000439FFF795FF8BF311884645D9D28AF301
:102E40001188CDE729463A46FDF702FFA36A3B44C5
:102E50003D44A3623E44E5E7D0E904239A4217D1FA
:102E6000C3689BB1836A8BB1043B9B1A0ED013607D
:102E7000C368013BC360C3691A44836902619A4213
:102E800024BF436A0361002383620123184670470D
:102E90000023FBE700F030B94FF08043586A7047D9
:102EA0004FF08043002258631A610222DA607047B3
:102EB0004FF080430022DA60704700004FF08043FB
:102EC00058637047FEE7000070B51B4B0163002597
:102ED000044686B0586085620E4600F0BFF804F1E3
:102EE0001003C4E904334FF0FF33C4E90635C4E9E5
:102EF0000044A560E562FFF7CFFF2B460246C4E918
:102F0000082304F134010D4A256580232046FEF78D
:102F100051FC0123E0600A4A037500927268019235
:102F2000B268CDE90223074B6846CDE90435FEF7C8
:102F300069FC06B070BD00BF0026002058350008AF
:102F40005D350008C52E0008024AD36A1843D062D6
:102F5000704700BF982300204B6843608B688360F4
:102F6000CB68C3600B6943614B6903628B69436241
:102F70000B6803607047000008B5264B26481A69A5
:102F800040F2FF110A431A611A6922F4FF7222F01B
:102F900001021A611A691A6B0A431A631A6D0A430D
:102FA0001A651E4A1B6D1146FFF7D6FF02F11C0180
:102FB00000F58060FFF7D0FF02F1380100F5806076
:102FC000FFF7CAFF02F1540100F58060FFF7C4FF6C
:102FD00002F1700100F58060FFF7BEFF02F18C0185
:102FE00000F58060FFF7B8FF02F1A80100F58060EE
:102FF000FFF7B2FF02F1C40100F58060FFF7ACFFFC
:1030000002F1E00100F58060FFF7A6FFBDE808408F
:1030100000F0EEB8003802400000024064350008BD
:1030200008B500F06BF9FEF7A3FBFFF735F8BDE834
:103030000840FEF711BE000070470000EFF309835F
:1030400005494A6B22F001024A63683383F3098819
:10305000002383F31188704700EF00E0302080F3F5
:10306000118862B60C4B0D4AD96821F4E06109045D
:10307000090C0A43DA60D3F8FC20094942F0807257
:10308000C3F8FC200A6842F001020A602022DA77C5
:1030900083F82200704700BF00ED00E00003FA054E
:1030A000001000E010B5302383F311880E4B5B68ED
:1030B00013F4006314D0F1EE103AEFF30984683C86
:1030C0004FF08073E361094BDB6B236684F309885F
:1030D000FEF728FB10B1064BA36110BD054BFBE7C3
:1030E00083F31188F9E700BF00ED00E000EF00E096
:1030F0002F030008320300080F4B1A6C42F0010244
:103100001A641A6E42F001021A660C4A1B6E93682A
:1031100043F0010393604FF0804353229A624FF0D3
:10312000FF32DA6200229A615A63DA605A60012241
:103130005A611A60704700BF00380240002004E066
:103140004FF0804208B51169D3680B40D9B2C9432A
:103150009B07116107D5302383F31188FEF71EFB0F
:10316000002383F3118808BD1F4B1A696FEAC2520E
:103170006FEAD2521A611A69C2F308021A614FF05B
:10318000FF301A695A69586100215A6959615A69B0
:103190001A6A62F080521A621A6A02F080521A6247
:1031A0001A6A5A6A58625A6A59625A6A1A6C42F022
:1031B00080521A641A6E42F080521A661A6E0B4AD6
:1031C000106840F480701060186F00F44070B0F523
:1031D000007F1EBF4FF4803018671967536823F4CF
:1031E0000073536000F086B8003802400070004061
:1031F000334B4FF080521A64324A4FF44041116011
:103200001A6842F001021A601A689107FCD59A68A0
:1032100022F003029A602A4B9A6812F00C02FBD14A
:10322000196801F0F90119609A601A6842F4803255
:103230001A601A689203FCD55A6F42F001025A676D
:103240001F4B5A6F9007FCD51F4A5A601A6842F00C
:1032500080721A601B4A53685904FCD5184B1A68CF
:103260009201FCD5194A9A60194B1A68194B9A4277
:10327000194B21D1194A1168194A91421CD140F2C7
:1032800005121A60144A136803F00F03052BFAD1D4
:103290000B4B9A6842F002029A609A6802F00C02A4
:1032A000082AFAD15A6C42F480425A645A6E42F4A7
:1032B00080425A665B6E704740F20572E1E700BFDC
:1032C00000380240007000400854400700948838DD
:1032D000002004E011640020003C024000ED00E00A
:1032E00041C20F4108B5FFF72BFFBDE80840FFF7CB
:1032F000D9BE000007211C20FFF7ECBB08B5FFF783
:1033000033FF00F00BF8FDF723FFFDF7D9FDFFF7C2
:1033100093FEBDE80840FFF7BDBD00007047000008
:10332000034611F8012B03F8012B002AF9D170474D
:1033300012100000121100001213000053544D33FC
:1033400032463F3F3F0053544D33324634307800CD
:1033500053544D3332463432780053544D33324651
:10336000343436585800000001203300001041006A
:1033700001105A000310590007103100000000002E
:103380003C33000813040000463300081904000011
:1033900050330008210400005A33000800000000E8
:1033A000350E0008210E00085D0E0008490E0008C9
:1033B000550E0008410E00082D0E0008190E0008D9
:1033C000B50E000800000000010000000000000031
:1033D00063300000D0330008F023002000260020D6
:1033E0004172647550696C6F740025424F415244BC
:1033F000252D424C002553455249414C25000000E3
:10340000020000000000000059100008D110000860
:1034100040004000A02A0020B02A00200200000046
:103420000000000003000000000000001911000867
:103430000000000010000000C02A00200000000072
:103440000100000000000000682D002001010200C2
:10345000F51B0008051B0008A11B0008851B0008C0
:10346000430000006834000809024300020100C064
:1034700032090400000102020100052400100105C8
:10348000240100010424020205240600010705822C
:10349000030800FF09040100020A000000070501FB
:1034A00002400000070581024000000012000000F9
:1034B000B434000812011001020000400912415703
:1034C00000020102030100000403090425424F41E8
:1034D0005244250041697257696E67463430355F42
:1034E000424D493237300030313233343536373897
:1034F000394142434445460000400000004000007E
:103500000040000000400000000001000000020038
:1035100000000200000002000000020000000200A3
:1035200000000200000002000000000095120008E8
:103530003D150008D515000840004000C82D0020AA
:10354000C82D002001000000D82D002080000000C0
:1035500040010000030000006D61696E0069646C49
:10356000650000000001812A00000000AAAAAAAAA2
:1035700000010024FFFE00000000000000A00A007F
:103580000000000100000000AAAAAAAA0000000191
:10359000FFFF00000000000000000000000000101D
:1035A00000000000AAAAAAAA00000010FFFF000065
:1035B000000000000000000000000000000000000B
:1035C000AAAAAAAA00000000FFFF00000000000055
:1035D000000000000000000000000000AAAAAAAA43
:1035E00000000000FFFF00000000000000000000DD
:1035F0000000000000000000AAAAAAAA0000000023
:10360000FFFF0000000000000000000000000000BC
:1036100000000000AAAAAAAA00000000FFFF000004
:10362000000000000000000000000000000000009A
:103630000A0000000000000003000000000000007D
:10364000000000000000000000000000000000007A
:10365000000000000000000000000000000000006A
:10366000881300000000000000400F000000000070
:10367000FF0096000000000800960000000008000F
:1036800004000000C8340008000000000000000032
:10369000000000000000000000000000000000002A
:1036A000FFFFFFFFFFFFFFFFFFFFFFFFFFFFFFFF2A
:1036B000FFFFFFFFFFFFFFFFFFFFFFFFFFFFFFFF1A
:1036C000FFFFFFFFFFFFFFFFFFFFFFFFFFFFFFFF0A
:10C0000000060020A9D20008A5580908015809080F
:10C010006D5809080158090839580908ABD20008B9
:10C02000ABD20008ABD20008ABD20008B18B0B0832
:10C03000ABD20008ABD20008ABD20008ABD20008EC
:10C04000ABD20008ABD20008ABD20008ABD20008DC
:10C05000ABD20008ABD20008FD970B0825980B085F
:10C060004D980B0875980B089D980B0861010B08FB
:10C0700089010B08B5010B08E1010B080D020B0843
:10C0800035020B0861020B08E5000B08ABD2000873
:10C09000ABD20008ABD20008ABD20008C5980B08A1
:10C0A000119A0B08159A0B08299A0B082D9A0B0860
:10C0B000319A0B08459A0B08599A0B08ED070B08A3
:10C0C00095090B08ABD20008ABD20008ABD2000830
:10C0D000ABD2000899990B08AD990B08C1990B08D0
:10C0E00029990B08ABD20008ABD200087D9A0B0847
:10C0F000819A0B08959A0B08999A0B088D020B08E8
:10C10000ABD20008ABD200086D9A0B08ABD2000886
:10C11000D5990B08E9990B08ABD20008ABD20008FF
:10C12000B9020B08E1020B080D030B0839030B08D9
:10C1300065030B08ABD20008ABD20008ABD20008F5
:10C14000ABD20008ABD20008ABD2000861930B0859
:10C150008D030B08B9030B08E5030B08FD990B08C9
:10C16000ABD20008ABD20008ABD20008ABD20008BB
:10C17000ABD20008ABD20008ABD20008ABD20008AB
:10C18000ABD20008ABD20008ABD20008ABD200089B
:10C19000ABD20008ABD20008ABD20008ABD200088B
:10C1A000ABD20008ABD20008ABD20008ABD200087B
:10C1B000ABD20008ABD20008ABD20008ABD200086B
:10C1C000ABD20008ABD20008ABD20008ABD200085B
:10C1D000ABD20008ABD20008ABD20008ABD200084B
:10C1E00031F50008092301085DA90108A9FE01082D
:10C1F000B90A0208E58E0208A9000408016C0508C6
:10C200000972050885A00508F5F90508390306082F
:10C2100081060608357106086D7706082D93060815
:10C22000ED290708FD990708E1A60708D54909087F
:10C23000394F09089D7E0A0861A50A0811BC0A0841
:10C24000B1E90A0879EF0A08FFFFFFFFFFFFFFFFD0
:10C2500081F0004102E000BF83F0004330B54FEAB7
:10C2600041044FEA430594EA050F08BF90EA020F24
:10C270001FBF54EA000C55EA020C7FEA645C7FEAB7
:10C28000655C00F0E2804FEA5454D4EB5555B8BFDA
:10C290006D420CDD2C4480EA020281EA030382EA4B
:10C2A000000083EA010180EA020281EA0303362DDD
:10C2B00088BF30BD11F0004F4FEA01314FF4801CB0
:10C2C0004CEA113102D0404261EB410113F0004FC2
:10C2D0004FEA03334CEA133302D0524263EB430379
:10C2E00094EA050F00F0A780A4F10104D5F1200E17
:10C2F0000DDB02FA0EFC22FA05F2801841F1000172
:10C3000003FA0EF2801843FA05F359410EE0A5F145
:10C3100020050EF1200E012A03FA0EFC28BF4CF076
:10C32000020C43FA05F3C01851EBE37101F000452C
:10C3300007D54FF0000EDCF1000C7EEB00006EEB39
:10C340000101B1F5801F1BD3B1F5001F0CD34908C3
:10C350005FEA30004FEA3C0C04F101044FEA44521A
:10C3600012F5800F80F09A80BCF1004F08BF5FEAA1
:10C37000500C50F1000041EB045141EA050130BD81
:10C380005FEA4C0C404141EB0101013C28BFB1F593
:10C39000801FE9D291F0000F04BF01460020B1FADE
:10C3A00081F308BF2033A3F10B03B3F120020CDAB1
:10C3B0000C3208DD02F1140CC2F10C0201FA0CF08F
:10C3C00021FA02F10CE002F11402D8BFC2F1200CF4
:10C3D00001FA02F120FA0CFCDCBF41EA0C019040AA
:10C3E000E41AA2BF01EB0451294330BD6FEA0404F3
:10C3F0001F3C1CDA0C340EDC04F11404C4F12002DE
:10C4000020FA04F001FA02F340EA030021FA04F3EF
:10C4100045EA030130BDC4F10C04C4F1200220FA46
:10C4200002F001FA04F340EA0300294630BD21FA84
:10C4300004F0294630BD94F0000F83F4801306BF4A
:10C4400081F480110134013D4EE77FEA645C18BF3E
:10C450007FEA655C29D094EA050F08BF90EA020FD5
:10C4600005D054EA000C04BF1946104630BD91EACD
:10C47000030F1EBF0021002030BD5FEA545C05D1D0
:10C480004000494128BF41F0004130BD14F580040F
:10C490003CBF01F5801130BD01F0004545F0FE4183
:10C4A00041F470014FF0000030BD7FEA645C1ABFB8
:10C4B000194610467FEA655C1CBF0B46024650EAEF
:10C4C000013406BF52EA033591EA030F41F400211B
:10C4D00030BD00BF90F0000F04BF0021704730B5A1
:10C4E0004FF4806404F132044FF000054FF0000176
:10C4F00050E700BF90F0000F04BF0021704730B537
:10C500004FF4806404F1320410F0004548BF40420B
:10C510004FF000013EE700BF42004FEAE2014FEA60
:10C5200031014FEA02701FBF12F07F4393F07F4F3B
:10C5300081F06051704732F07F4208BF704793F03E
:10C540007F4F04BF41F40021704730B54FF4607451
:10C5500001F0004521F000411CE700BF50EA010254
:10C5600008BF704730B54FF000050AE050EA0102FD
:10C5700008BF704730B511F0004502D5404261EB6D
:10C5800041014FF4806404F132045FEA915C3FF4AE
:10C59000D8AE4FF003025FEADC0C18BF03325FEA4B
:10C5A000DC0C18BF033202EBDC02C2F1200300FAFC
:10C5B00003FC20FA02F001FA03FE40EA0E0021FA21
:10C5C00002F11444BDE600BF70B54FF0FF0C4CF40F
:10C5D000E06C1CEA11541DBF1CEA135594EA0C0FC1
:10C5E00095EA0C0F00F0DEF82C4481EA030621EAFC
:10C5F0004C5123EA4C5350EA013518BF52EA033537
:10C6000041F4801143F4801338D0A0FB02CE4FF0E8
:10C610000005E1FB02E506F00042E0FB03E54FF018
:10C620000006E1FB03569CF0000F18BF4EF0010E10
:10C63000A4F1FF04B6F5007F64F5407404D25FEA0C
:10C640004E0E6D4146EB060642EAC62141EA5551BF
:10C650004FEAC52040EA5E504FEACE2EB4F1FD0C01
:10C6600088BFBCF5E06F1ED8BEF1004F08BF5FEA7F
:10C67000500E50F1000041EB045170BD06F0004631
:10C6800046EA010140EA020081EA0301B4EB5C04DE
:10C69000C2BFD4EB0C0541EA045170BD41F48011D6
:10C6A0004FF0000E013C00F3AB8014F1360FDEBFFB
:10C6B000002001F0004170BDC4F10004203C35DAD7
:10C6C0000C341BDC04F11404C4F1200500FA05F35A
:10C6D00020FA04F001FA05F240EA020001F00042FB
:10C6E00021F0004110EBD37021FA04F642EB060171
:10C6F0005EEA430E08BF20EAD37070BDC4F10C049B
:10C70000C4F1200500FA04F320FA05F001FA04F25E
:10C7100040EA020001F0004110EBD37041F100014A
:10C720005EEA430E08BF20EAD37070BDC4F1200555
:10C7300000FA05F24EEA020E20FA04F301FA05F2BD
:10C7400043EA020321FA04F001F0004121FA04F265
:10C7500020EA020000EBD3705EEA430E08BF20EA35
:10C76000D37070BD94F0000F0FD101F0004640006F
:10C7700041EB010111F4801F08BF013CF7D041EAF1
:10C78000060195F0000F18BF704703F000465200F5
:10C7900043EB030313F4801F08BF013DF7D043EAC6
:10C7A0000603704794EA0C0F0CEA135518BF95EA7C
:10C7B0000C0F0CD050EA410618BF52EA4306D1D103
:10C7C00081EA030101F000414FF0000070BD50EA22
:10C7D000410606BF1046194652EA430619D094EAAC
:10C7E0000C0F02D150EA013613D195EA0C0F05D196
:10C7F00052EA03361CBF104619460AD181EA0301EA
:10C8000001F0004141F0FE4141F470014FF00000A1
:10C8100070BD41F0FE4141F4780170BD70B54FF03C
:10C82000FF0C4CF4E06C1CEA11541DBF1CEA1355BC
:10C8300094EA0C0F95EA0C0F00F0A7F8A4EB05049E
:10C8400081EA030E52EA03354FEA013100F0888095
:10C850004FEA03334FF0805545EA131343EA12635E
:10C860004FEA022245EA111545EA10654FEA002613
:10C870000EF000419D4208BF964244F1FD0404F5CC
:10C88000407402D25B084FEA3202B61A65EB030528
:10C890005B084FEA32024FF480104FF4002CB6EBE5
:10C8A000020E75EB030E22BFB61A754640EA0C0065
:10C8B0005B084FEA3202B6EB020E75EB030E22BFA5
:10C8C000B61A754640EA5C005B084FEA3202B6EBE6
:10C8D000020E75EB030E22BFB61A754640EA9C00A5
:10C8E0005B084FEA3202B6EB020E75EB030E22BF75
:10C8F000B61A754640EADC0055EA060E18D04FEA33
:10C90000051545EA16754FEA06164FEAC30343EAD2
:10C9100052734FEAC2025FEA1C1CC0D111F4801F9F
:10C920000BD141EA00014FF000004FF0004CB6E798
:10C9300011F4801F04BF01430020B4F1FD0C88BF37
:10C94000BCF5E06F3FF6AFAEB5EB030C04BFB6EB42
:10C95000020C5FEA500C50F1000041EB045170BD35
:10C960000EF0004E4EEA113114EB5C04C2BFD4EB62
:10C970000C0541EA045170BD41F480114FF0000EE6
:10C98000013C90E645EA060E8DE60CEA135594EA62
:10C990000C0F08BF95EA0C0F3FF43BAF94EA0C0F65
:10C9A0000AD150EA01347FF434AF95EA0C0F7FF4DA
:10C9B00025AF104619462CE795EA0C0F06D152EA2E
:10C9C00003353FF4FDAE1046194622E750EA410612
:10C9D00018BF52EA43067FF4C5AE50EA41047FF423
:10C9E0000DAF52EA43057FF4EBAE12E74FF0FF3C88
:10C9F00006E000BF4FF0010C02E000BF4FF0010C59
:10CA00004DF804CD4FEA410C7FEA6C5C4FEA430CD1
:10CA100018BF7FEA6C5C1BD001B050EA410C0CBF20
:10CA200052EA430C91EA030F02BF90EA020F002082
:10CA3000704710F1000F91EA030F58BF994208BFE9
:10CA400090422CBFD8176FEAE37040F001007047A6
:10CA50004FEA410C7FEA6C5C02D150EA013C07D1FD
:10CA60004FEA430C7FEA6C5CD6D152EA033CD3D048
:10CA70005DF8040B704700BF8446104662468C4642
:10CA80001946634600E000BF01B5FFF7B7FF002875
:10CA900048BF10F1000F01BD4DF808EDFFF7F4FF9E
:10CAA0000CBF012000205DF808FB00BF4DF808ED29
:10CAB000FFF7EAFF34BF012000205DF808FB00BF4C
:10CAC0004DF808EDFFF7E0FF94BF012000205DF86E
:10CAD00008FB00BF4DF808EDFFF7CEFF94BF012023
:10CAE00000205DF808FB00BF4DF808EDFFF7C4FF1C
:10CAF00034BF012000205DF808FB00BF4FEA410C65
:10CB00007FEA6C5C02D150EA013C0AD14FEA430C47
:10CB10007FEA6C5C02D152EA033C02D14FF0000084
:10CB200070474FF0010070474FEA410212F50012C2
:10CB300015D211D56FF47873B3EB625212D94FEA64
:10CB4000C12343F0004343EA505311F0004F23FA4E
:10CB500002F018BF404270474FF00000704750EAA3
:10CB6000013005D111F0004008BF6FF00040704760
:10CB70004FF00000704700BF4A0011D212F50012BA
:10CB800011D20DD56FF47873B3EB62520ED44FEA25
:10CB9000C12343F0004343EA505323FA02F07047A5
:10CBA0004FF00000704750EA013002D14FF0FF30E3
:10CBB00070474FF0000070474FEA4102B2F1E04386
:10CBC00024BFB3F5001CDCF1FE5C0DD901F0004C74
:10CBD0004FEAC0024CEA5070B2F1004F40EB8300C4
:10CBE00008BF20F00100704711F0804F21D113F1F0
:10CBF0003872BCBF01F00040704741F480114FEA29
:10CC00005252C2F11802C2F1200C10FA0CF320FAB1
:10CC100002F018BF40F001004FEAC1234FEAD323CE
:10CC200003FA0CFC40EA0C0023FA02F34FEA430338
:10CC3000CCE77FEA625307D150EA01331EBF4FF0C1
:10CC4000FE4040F44000704701F0004040F0FE40DC
:10CC500040F40000704700BF80F0004002E000BFD9
:10CC600081F0004142001FBF5FEA410392EA030FD7
:10CC70007FEA226C7FEA236C6AD04FEA1262D2EB21
:10CC80001363C1BFD218414048404140B8BF5B4226
:10CC9000192B88BF704710F0004F40F4000020F0BF
:10CCA0007F4018BF404211F0004F41F4000121F0D5
:10CCB0007F4118BF494292EA030F3FD0A2F101021F
:10CCC00041FA03FC10EB0C00C3F1200301FA03F15D
:10CCD00000F0004302D5494260EB4000B0F5000F80
:10CCE00013D3B0F1807F06D340084FEA310102F13F
:10CCF0000102FE2A51D2B1F1004F40EBC25008BFF1
:10CD000020F0010040EA03007047490040EB0000BA
:10CD1000013A28BFB0F5000FEDD2B0FA80FCACF1BB
:10CD2000080CB2EB0C0200FA0CF0AABF00EBC250E8
:10CD300052421843BCBFD0401843704792F0000FD6
:10CD400081F4000106BF80F400000132013BB5E729
:10CD50004FEA41037FEA226C18BF7FEA236C21D09F
:10CD600092EA030F04D092F0000F08BF0846704704
:10CD700090EA010F1CBF0020704712F07F4F04D1D2
:10CD8000400028BF40F00040704712F100723CBFE5
:10CD900000F50000704700F0004343F0FE4040F40F
:10CDA000000070477FEA226216BF08467FEA2363CD
:10CDB0000146420206BF5FEA412390EA010F40F4B8
:10CDC000800070474FF0000304E000BF10F0004304
:10CDD00048BF40425FEA000C08BF704743F09643EB
:10CDE00001464FF000001CE050EA010208BF704706
:10CDF0004FF000030AE000BF50EA010208BF70478D
:10CE000011F0004302D5404261EB41015FEA010CA1
:10CE100002BF84460146002043F0B64308BFA3F199
:10CE20008053A3F50003BCFA8CF2083AA3EBC2537B
:10CE300010DB01FA02FC634400FA02FCC2F120029A
:10CE4000BCF1004F20FA02F243EB020008BF20F0D1
:10CE50000100704702F1200201FA02FCC2F1200237
:10CE600050EA4C0021FA02F243EB020008BF20EA2C
:10CE7000DC7070477BB972B90029BEBF00204FF04B
:10CE8000004106E008BF00281CBF6FF000414FF0D2
:10CE9000FF3000F007BAADF1080C6DE904CE0029AF
:10CEA00009DB002B1ADB00F095F8DDF804E0DDE982
:10CEB000022304B07047404261EB4101002B1BDBB1
:10CEC00000F088F8DDF804E0DDE9022304B0404218
:10CED00061EB4101524263EB43037047524263EB03
:10CEE000430300F077F8DDF804E0DDE9022304B045
:10CEF000404261EB41017047524263EB430300F053
:10CF000069F8DDF804E0DDE9022304B0524263EB86
:10CF10004303704753B94AB9002908BF00281CBF12
:10CF20004FF0FF314FF0FF3000F0BCB9ADF1080C0D
:10CF30006DE904CE00F04EF8DDF804E0DDE90223EF
:10CF400004B07047430803F05533C01A830803F058
:10CF5000333300F03330184400EB101000F00F3082
:10CF600000EB002000EB0040000E704707EE900A37
:10CF7000F5EEC07AF1EE10FA01D400F00BB8F1EE44
:10CF8000677A08B517EE900A00F004F8404261EBAA
:10CF9000410108BDD0B5FFF7BFFA0C4B0022064691
:10CFA0000F46FFF711FBFFF7E7FD0446FFF792FA84
:10CFB000074B0022FFF708FB02460B463046394676
:10CFC000FFF74AF9FFF7D8FD2146D0BD0000F03D3C
:10CFD0000000F0412DE9F047089D04468E46002BE5
:10CFE0004DD18A42944669D9B2FA82F252B101FA1D
:10CFF00002F3C2F1200120FA01F10CFA02FC41EA2D
:10D00000030E94404FEA1C48210CBEFBF8F61FFAB1
:10D010008CF708FB16E341EA034306FB07F199424C
:10D020000AD91CEB030306F1FF3080F01F819942FF
:10D0300040F21C81023E63445B1AA4B2B3FBF8F0D9
:10D0400008FB103344EA034400FB07F7A7420AD960
:10D050001CEB040400F1FF3380F00A81A74240F288
:10D0600007816444023840EA0640E41B00261DB1F3
:10D07000D4400023C5E900433146BDE8F0878B4228
:10D0800009D9002D00F0EF800026C5E900013046E7
:10D090003146BDE8F087B3FA83F6002E4AD18B42C1
:10D0A00002D3824200F2F980841A61EB030301206B
:10D0B0009E46002DE0D0C5E9004EDDE702B9FFDE57
:10D0C000B2FA82F2002A40F09280A1EB0C014FEA02
:10D0D0001C471FFA8CFE0126200CB1FBF7F307FB5F
:10D0E000131140EA01410EFB03F0884208D91CEB02
:10D0F000010103F1FF3802D2884200F2CB8043469F
:10D10000091AA4B2B1FBF7F007FB101144EA01447D
:10D110000EFB00FEA64508D91CEB040400F1FF310C
:10D1200002D2A64500F2BB800846A4EB0E0440EAFA
:10D1300003409CE7C6F12007B34022FA07FC4CEA03
:10D14000030C20FA07F401FA06F31C43F9404FEAF6
:10D150001C4900FA06F3B1FBF9F8200C1FFA8CFE0B
:10D1600009FB181140EA014108FB0EF0884202FA5F
:10D1700006F20BD91CEB010108F1FF3A80F0888020
:10D18000884240F28580A8F102086144091AA4B2DD
:10D19000B1FBF9F009FB101144EA014100FB0EFE5E
:10D1A0008E4508D91CEB010100F1FF346CD28E458D
:10D1B0006AD90238614440EA0840A0FB0294A1EB1E
:10D1C0000E01A142C846A64656D353D05DB1B3EB7B
:10D1D000080261EB0E0101FA07F722FA06F3F140AB
:10D1E0001F43C5E9007100263146BDE8F087C2F152
:10D1F0002003D8400CFA02FC21FA03F391400143CA
:10D200004FEA1C471FFA8CFEB3FBF7F007FB103602
:10D210000B0C43EA064300FB0EF69E4204FA02F4AE
:10D2200008D91CEB030300F1FF382FD29E422DD901
:10D23000023863449B1B89B2B3FBF7F607FB163336
:10D2400041EA034106FB0EF38B4208D91CEB0101B6
:10D2500006F1FF3816D28B4214D9023E6144C91A36
:10D2600046EA004638E72E46284605E70646E3E646
:10D270001846F8E64B45A9D2B9EB020864EB0C0E50
:10D280000138A3E74646EAE7204694E74046D1E75F
:10D29000D0467BE7023B614432E7304609E764440D
:10D2A000023842E7704700BF02E000F000F8FEE7F6
:10D2B00072B6374880F30888364880F309883648C4
:10D2C0003649086040F20000CCF200004EF634719E
:10D2D000CEF200010860BFF34F8FBFF36F8F40F2B3
:10D2E0000000C0F2F0004EF68851CEF20001086056
:10D2F000BFF34F8FBFF36F8F4FF00000E1EE100AC6
:10D300004EF63C71CEF200010860022080F31488D2
:10D31000BFF36F8FABF0AAFCA6F062FE4FF0553062
:10D320001F491B4A91423CBF41F8040BFAE71D49D3
:10D33000184A91423CBF41F8040BFAE71A491B4ACC
:10D340001B4B9A423EBF51F8040B42F8040BF8E71E
:10D3500000201849184A91423CBF41F8040BFAE7F3
:10D36000ABF088FCA6F090FE144C154DAC4203DAED
:10D3700054F8041B8847F9E702F0CAF8114C124D23
:10D38000AC4203DA54F8041B8847F9E7ABF070BCF1
:10D39000000600200022002000C0000808ED00E088
:10D3A000000000200006002028390E08002200207E
:10D3B0009C2D0020A02D00202C530120E0C100084E
:10D3C00048C2000848C2000848C200082DE9F04FD2
:10D3D0002DED108AC1F80CD0C3689D46BDEC108AB3
:10D3E000BDE8F08F002383F311882846A047002072
:10D3F000A6F0F2FBFEE7A6F059FA00DFFEE7000018
:10D4000001F0FF01102A2BDB10F0070F08D010F8F5
:10D41000013B013A8B422DD010F0070F42B3F6D1F9
:10D42000F0B441EA012141EA014122F007047FF012
:10D4300000070023F0E80256083C85EA010586EA69
:10D44000010685FA47F5A3FA87F586FA47F6A5FAA5
:10D4500087F68EB9EED1F0BC01F0FF0102F00702B1
:10D4600032B110F8013B013A83EA010313B1F8D15C
:10D470000020704701387047002D06BF354603383D
:10D48000073815F0010F07D1013015F4807F02BF76
:10D49000013015F4C03F0130F0BC0138704700BFC7
:10D4A00010F8012B11F8013B012A28BF9A42F7D04E
:10D4B000D01A7047034613F8012B002AFBD1181A23
:10D4C0000138704738B50022002304460D46FFF7A7
:10D4D000EDFA28B920462946BDE8384000F00AB8E0
:10D4E000204605F1004100F005F8404261EB4101A2
:10D4F00038BD00BFD0B50C4B002206460F46FFF7E3
:10D5000063F8FFF739FB0446FEF7E4FF074B002200
:10D51000FFF75AF802460B4630463946FEF79CFEA6
:10D52000FFF72AFB2146D0BD0000F03D0000F0418E
:10D53000036800221B6818477FB503914021054608
:10D5400077F090F8039A18B90124204604B070BD12
:10D55000134E039296F93833002BF5D05AF000F9A8
:10D56000437A039A53B95AF0FBF8847A039A2CB998
:10D570000C4B4021284677F07BF8E6E7D6F8843C50
:10D58000B6F93A13B3F908309942DDDD064B009342
:10D590004021064B284677F06BF80024D5E700BF02
:10D5A000A84D00204C110C086B110C0859110C08E7
:10D5B000F0B52DED028B0D469DB02021044677F08D
:10D5C00051F8002800F0A980554E96F93833ABB1D8
:10D5D000D6F8842CB6F93A33B2F90E1003F10A02E8
:10D5E000914203DD40F28D32934207DC4D4B2A46D7
:10D5F0002021204677F03CF800208AE096F931336C
:10D60000022B05D1484B2A462021204677F030F8DE
:10D6100096EDDB7ADFED456AB4EEE67AF1EE10FACC
:10D6200022D9D6EDDC7AF4EEE67AF1EE10FA1BD9C7
:10D630003F4FD7F8503AD3ED096AF4EEC76AF1EEDE
:10D6400010FA11D493ED0B7AB4EEE77AF1EE10FAFA
:10D650000AD406F6B833D3ED007AF5EEC07AF1EECF
:10D6600010FA03D8334BC2E7334BC0E796F8CC230C
:10D670000D2A06D80123934013F4215F01D02F4BCC
:10D68000B5E72F480EF00AFC012806D1D7F85C0A4E
:10D690007EF07EFB98B101281AD00021602204A8F8
:10D6A0000391AFF0EBFA2749D7F8580A642303AA8D
:10D6B0007DF00AFB20BB03AB0093234B02E0234B1E
:10D6C0000093234B2A462021204676F0D1FF93E792
:10D6D00096F8983C93B11F48192149F0FBFF68B1B7
:10D6E0001D4B1C4893ED008A19214AF009F8B4EE4D
:10D6F000C80AF1EE10FAD0D5184BE1E7184BDFE776
:10D700001849D7F8500A642303AA7AF045FA00288A
:10D71000D1D01DB0BDEC028BF0BD0120F9E700BFF8
:10D72000A84D002074110C0887110C08000000B4EB
:10D73000A86D0020C9110C08AF110C08DC110C08F1
:10D74000908800205B120C085F120C0821120C0854
:10D75000FC110C08B03A0020C888002040120C08C8
:10D7600031120C0871120C0808B514F097FEBDE8D0
:10D770000840012113F0FCB92DE9F047464F05465A
:10D78000D7F8A40F0368A4B01B690E4698478146DA
:10D7900014F084FE0021804660220CA80B91AFF0AB
:10D7A0006DFA64230BAA4946404614F059F9044621
:10D7B00048B93A4A0BAB3146284677F04BF9204638
:10D7C00024B0BDE8F08707F5A87063F0F7FBB9F166
:10D7D000000F03D195F91E30012B0AD1304811F00A
:10D7E000FBFC80B92F4A3146284677F033F90024F4
:10D7F000E5E710F0060FE2D0A7F5005011F0ECFCC1
:10D8000008B9294AEFE7D8F8F83593F8C4202AB1C7
:10D8100093F8C120520601D5244AE4E7D7EDD57A22
:10D82000F5EEC07AF1EE10FAC9DDD3F8C890D3F85E
:10D83000CCA0D3F8D080D83393E807001C4B0393D7
:10D840001C4B0593EC461C4B07938CE807001B4BC5
:10D85000099360462FF060FBD7EDD57A8DED040A71
:10D86000CDF818A0CDF82090CDF8288003AB042285
:10D8700093ED017AB4EEE77AF1EE10FA04D5013AAD
:10D8800003F10803F4D19AE71B680D4A3146284694
:10D8900077F0E0F8ABE700BFA84D002078120C0845
:10D8A000A82D002081120C0898120C08BE120C083A
:10D8B000BB620C0860FB0D08CC120C08CA770C0880
:10D8C000D5120C0808B5064B93F8BD3F9B0704D54D
:10D8D000044A77F0BFF8002008BD0120FCE700BF34
:10D8E000A84D0020E8120C0870B50C4C0546D4F881
:10D8F000A40F03685B690E46984710B101242046C7
:10D9000070BDA4F5005011F079FC04460028F5D153
:10D91000034A3146284677F09DF8F0E7A84D0020ED
:10D92000F8120C082DE9F046464DD5F8C83F93F89B
:10D93000CB609BB081468A4666B9434B1B68986AA8
:10D9400003685B6B9847044640B9404A51464846D5
:10D9500077F080F830461BB0BDE8F08659F000FF44
:10D9600020215AF063FF58B159F0FAFE1F215AF0F6
:10D970005DFF88B3364A5146484677F06BF800247D
:10D9800095F8923F43B195F8943F2BB1314A5146F7
:10D99000484677F05FF800245146484677F008FF84
:10D9A000002188424FF0600202A808BF0C46019196
:10D9B000AFF064F9D5F8C80F036801AA1B686421A9
:10D9C0009847054680B9244A01AB5146484677F04E
:10D9D00041F82C462646BDE759F0C2FEA5215AF073
:10D9E00025FF0028C6D1CBE7002CF3D0484676F0BF
:10D9F00031FE38B9D9F8003051465B6B484698473C
:10DA00000446E7E751464846FFF7D2FD5146074630
:10DA10004846FFF757FF3840C4B251464846FFF723
:10DA20008BFD514604404846FFF75EFF51460440D7
:10DA3000484677F037F851460440484677F0D0FE24
:10DA40000440C7E7A84D0020C08A00200C130C0832
:10DA500023130C083D130C0855130C0808B5FFF7E9
:10DA600061FF034A82F8840F024A907108BD00BF2B
:10DA7000A84D0020858E0020F7B506460F4676F0AB
:10DA800027FE0446A0B30221304676F0EBFD0546A2
:10DA900070B314F003FD4FF48071044613F068F87E
:10DAA00048BB20464FF4007113F062F8044600238F
:10DAB000019314F0F3FC01A913F0DEFAECB1104B62
:10DAC000DDED017A93ED007AF1EE677A77EEC77AB1
:10DAD000B7EE007AF0EEE77AF4EEC77AF1EE10FADC
:10DAE00006DD084B3A460221304676F0C1FD00249F
:10DAF000204603B0F0BD0024D9E72C46F8E700BF6C
:10DB0000C477002060130C08F8B504460F4677F080
:10DB100059F810210546204676F0A4FD58B120465C
:10DB2000FFF722FE064630B9044B3A461021204644
:10DB300076F09EFD35462846F8BD00BF74130C08EC
:10DB400070B505460E4676F0FBFC044678B18021A0
:10DB5000284676F087FD50B1074B93F8413543B125
:10DB6000064B32468021284676F082FD002420466E
:10DB700070BD0446FBE700BFA85D002088130C08B9
:10DB800038B50D4D0446D5F85C0A7EF001F9012840
:10DB900010D0D5F85C0A7EF0FBF8022804D02046AD
:10DBA000BDE8384076F0CEBC04480EF077F9012885
:10DBB000F5D138BD0020FCE7A86D0020908800203A
:10DBC000F0B50F4D85B0D5F87C3C0093D5F8803C7E
:10DBD0000193D5F8843C02936A46D5F8883C0393B8
:10DBE00006460F4677F09CFD39460446304676F0EF
:10DBF00093FD2040C0B285F8830F05B0F0BD00BF93
:10DC0000A84D00202DE9F04106462D48DFF8C080E0
:10DC10000F4663F0D3F90546D8F8A40F03681B69D3
:10DC20009847044638B915F0060F18D1D8F8D84FE0
:10DC3000A31E5C425C4114F031FCD0F80036DFF8E2
:10DC4000948093F8B9506DB15CB13946304676F0A6
:10DC50002FFE054630B9002488F807400DE0012466
:10DC6000E9E7254639463046FFF786FD0446002899
:10DC7000F1D02DB9012388F807302046BDE8F081A6
:10DC80000821304676F0EEFC0028F3D00D4822F053
:10DC90003DFD0028EED00C4B93F8DC23B02101FBB6
:10DCA000023203F50053B2F8E621B3F932339A4257
:10DCB000E0DD064B3A460821304676F0D9FCCAE74B
:10DCC000F84E0020B02E0020A82D00209C130C0838
:10DCD000A84D0020858E00202DE9F0412DED028B0E
:10DCE00082B00E46054614F0D9FB804613F052FD73
:10DCF000044650B94A4A0121284676F0ABFE204638
:10DD000002B0BDEC028BBDE8F081464FD7F8A40FFE
:10DD1000036831469B699847044658B9D7F8A40F61
:10DD20000368DB6C9847404A03460121284676F099
:10DD300091FEE4E7284676F08DFC0028DFD0102124
:10DD4000284676F08FFCE0B1D8ED1E7A98ED1D0ADA
:10DD500020EE270AACF0D6FC07F50053B0EE408A5F
:10DD6000D3F8500A79F0A6FDB4EEC08AF1EE10FAAD
:10DD700007DD2E4B01221021284676F079FC002485
:10DD8000BDE74021284676F06DFCE8B1012E14D0A5
:10DD9000232E12D0042E10D0254800F0BBFBB5EE88
:10DDA000C00AF1EE10FA1DDD224B00930122224B36
:10DDB0004021284676F05CFCE1E7D7F8A40F036821
:10DDC0009B6C98470028E7D01C4B1B68D86A0368F7
:10DDD000DB6998470128014619D1194A284676F08F
:10DDE00039FECCE7D7F8A40F03685B69984730B1D8
:10DDF000D7F8843CB3F90C30002BE5DDD4E7D7F835
:10DE0000A40F03681B6898470B28DDD1F0E7314663
:10DE1000284602B0BDEC028BBDE8F04177F098B91E
:10DE2000AC130C08A84D0020BD130C08D1130C082E
:10DE3000A82D00206B110C08D9130C08C08A0020F3
:10DE4000E5130C0870B505460E46FFF795FC084B28
:10DE50000446D87131462846FFF746FD3146002872
:10DE6000284608BF002477F037FB204070BD00BF74
:10DE7000858E0020F7B54F4F3B78002B40F0978000
:10DE80004D4CD4F8C85F95F8CB5001263E701DB1BB
:10DE90003B70284603B0F0BD77F04EFD054630B923
:10DEA000464A3870137843F001031370F1E74EF0DF
:10DEB0004DF831464DF012F8A4F5005006F030FB55
:10DEC0003F4B1E710B2645F0D7FA013E45F072FA22
:10DED00016F0FF06F7D13B4800F0A6FF14F0DEFA7B
:10DEE00004F57F62C16A116090F8A030DA0748D467
:10DEF00013F000FE4EF02AF83C214DF0BFFD04F572
:10DF00007B6300221A6000212E4801F031F82D4871
:10DF100011F062F901462C4882F0DCFF2B4B1B68A4
:10DF2000D86A036801211B689847D4F8C80F0368B2
:10DF30001B6B98470121D4F8C80F7FF039FF4EF0D2
:10DF400005F80646D4F8A40F03681B68984794F8B0
:10DF5000D422014630464DF0B5F91A4806F0D2FAFF
:10DF600000264AF009FD4AF033F83E7087F0D0FCF5
:10DF7000174B84F8996FC3F8680A012384F8953F1A
:10DF800087E79B07BFD431460E4804F07FFB002390
:10DF9000019314F083FA01A913F06EF8DDED017A14
:10DFA00004F57B63F1EE677AC3ED007AABE70025F9
:10DFB0006FE700BFA02D0020A84D0020A48E0020F8
:10DFC000858E0020A82D0020AC580020C08A00209B
:10DFD000A86D00202DE9F0433F4CD4F8C83F93F8DA
:10DFE000CB3087B007460D461646002B71D05AB18C
:10DFF000012901D0232907D194F8873F23B90025AF
:10E00000284607B0BDE8F083002D56D02946324699
:10E01000384677F055FD05460028F0D014F03EFA5A
:10E0200007461BF07BFD8046384612F0CBFED8B188
:10E0300098F92430022B17D100264FF00009F1B2D5
:10E0400003AA38460191CDF80C90CDF81090CDF888
:10E05000149013F0BBFB019918B103AA40461BF0C2
:10E060000DFA0136032EEAD11C48012106F0BEFC50
:10E070001A48012106F014FC0021D4F8C80F7FF0E3
:10E0800097FE174831F008FD4DF060FF00214CF07D
:10E0900025FF144B1B68D86A036800211B6898474A
:10E0A000D4F8A41F1048002384F8953F0B1A594256
:10E0B0005941383083F03EF9A2E7D4F8A40F036841
:10E0C0005B6998470028A1D194F8873F002B9DD128
:10E0D00095E7012594E700BFA84D0020A82D00205A
:10E0E000B0820020C08A00205084002000207047A9
:10E0F00010B5064CD4F8A40F03685B6A984718B1B2
:10E10000D4F8C83F93F8CB0010BD00BFA84D002045
:10E1100010B52DED028B84B0B0EE408A0391FFF76D
:10E12000E7FF0446B0B19FED0E0A03990D48B4EE27
:10E13000488AF1EE10FA4FF000024FF00103CDE9EA
:10E1400000236CBFF0EE400AF0EE480A68BF1346A9
:10E150000BF0A0FF204604B0BDEC028B10BD00BF49
:10E16000000000002C87002007B50191FFF7C0FFD9
:10E1700030B10199044803B05DF804EB00F0F2BA45
:10E1800003B05DF804FB00BFA82D0020014863F038
:10E190003BB900BFF84E002008B500F5005090F8DC
:10E1A000853F8B4209D080F8851F31B14DF0CEFEFE
:10E1B000BDE808400F214DF061BC08BD70B500F509
:10E1C00000560546D6F8D83F8B420C4612D001299E
:10E1D00011D0022916D059B94DF0B8FE1B214DF0CF
:10E1E0004DFC0D4A05F5365006213C3052F084FCBA
:10E1F000C6F8D84F70BD4DF0A9FE1A214DF03EFC77
:10E20000064AEFE7012100F0B3FE4DF09FFE1D210D
:10E210004DF034FC024AE5E75C140C0871140C085C
:10E220006C140C0810B500F500520C4692F8BD3F76
:10E2300003F00101A14209D064F3000382F8BD3F5D
:10E24000DB0704D405F058FD024B9C7210BD05F0AD
:10E2500033FFF9E7858E002000F5005090F8BD3FB0
:10E2600061F3410380F8BD3F014B1973704700BF54
:10E27000858E002010B5044659F072FA20215AF01C
:10E28000D5FA04F50054003818BF012084F8920F25
:10E2900010BD000038B5044604F580454AF06CFB1B
:10E2A000D5F8582A436FC2F85C32D5F8502A9366E5
:10E2B00004F5A04292F8112D4AB904F50054D4F89F
:10E2C000C82FD360D5F8500A03689B6D9847D5F8DE
:10E2D000500ABDE8384078F04FBB000070B52DED16
:10E2E000028B00F5005582B0D5F8C83F93F8CB30CB
:10E2F0000446002B75D095F8873F002B71D100F5AF
:10E30000A04393F83834002B6BD1D5F8A40F0368E1
:10E310005B699847002864D1344BD3F8A40F036895
:10E320001B6898470B285CD004F580469FED307A37
:10E33000D6F8583AD3EDB97AF0EEE77AF4EEC77A28
:10E34000F1EE10FA4DD514F0A9F895F88C2D01A92D
:10E3500013F052FE002844D0D5F8C80F44304FF0D7
:10E36000A7FF0346DFED230A93ED000A9E20B7EED8
:10E37000001A2AF02FFFB5EEC00AF1EE10FA30DDD8
:10E38000DDED017A9FED1C7AF0EEE77AF4EEC77AC4
:10E39000F1EE10FA25D5D6F8500A036804F580543A
:10E3A000D3F8943094EDCF8A9847DFED147A9FED3F
:10E3B000147AA0EE678AB0EEC88AB4EEC78AF1EE8E
:10E3C00010FA0ED5D4EDD07AF0EEE77AF4EEC77AF3
:10E3D000F1EE10FA05D59FED0B0AD5F8C80F81F0C4
:10E3E0003FF802B0BDEC028B70BD00BFA84D00200D
:10E3F00000000034000000009A99193FD402373918
:10E40000C2B8B23D0AD7233C08B500F50050D0F899
